S0130000526F746172795F736166652E7372656392
S11300000C9434000C9451000C9451000C94510045
S11300100C9451000C9451000C9451000C94510018
S11300200C9451000C9451000C9451000C94510008
S11300300C9451000C9451000C9451000C945100F8
S11300400C9451000C9451000C9451000C945100E8
S11300500C9451000C9451000C9451000C945100D8
S11300600C9451000C94510011241FBECFEFD8E022
S1130070DEBFCDBF11E0A0E0B1E0E8EEF8E002C0E1
S113008005900D92AC30B107D9F721E0ACE0B1E0B6
S113009001C01D92A231B207E1F70E94C3030C9480
S11300A072040C940000CF93DF93CDB7DEB740E029
S11300B050E061E070E08DE090E00E94090141E0D1
S11300C050E060E070E08FE090E00E94090141E0C0
S11300D050E060E070E080E190E00E94090141E0BE
S11300E050E060E070E081E190E00E940901DF915E
S11300F0CF910895CF93DF9300D000D0CDB7DEB772
S11301000E94E400882F90E09A8389831C821B82DA
S11301100E94E400882F90E09C838B832B813C8198
S113012089819A8128173907A1F08B819C810197D5
S113013031F489819A81039711F480E00FC08B8197
S11301409C81039731F489819A81019711F481E0AC
S113015005C08B819C819A838983DACF0F900F909D
S11301600F900F90DF91CF910895CF93DF931F925B
S1130170CDB7DEB7198221C068EC70E080E090E072
S11301800E948A0385E290E025E230E0F9012081B3
S11301902062FC01208368EC70E080E090E00E9423
S11301A08A0385E290E025E230E0F90120812F7D89
S11301B0FC01208389818F5F898389818530E0F206
S11301C00F90DF91CF910895CF93DF931F92CDB716
S11301D0DEB7198286E290E0FC018081882F90E0EE
S11301E081709927892B19F089818260898386E23D
S11301F090E0FC018081882F90E082709927892B00
S113020019F089818160898389810F90DF91CF9171
S11302100895CF93DF93CDB7DEB72A970FB6F8943E
S1130220DEBF0FBECDBF9E838D8378876F835A87D1
S113023049878D819E8199230CF484C08D819E8190
S113024008970CF07FC08F819885009749F101973A
S113025009F093C18AE290E02AE230E0F9012081BA
S1130260422F21E030E00D8002C0220F331F0A9498
S1130270E2F7242BFC0120838BE290E02BE230E0B8
S1130280F9012081422F21E030E00D8002C0220FCD
S1130290331F0A94E2F720952423FC01208351C0E4
S11302A089859A85892B31F18BE290E02BE230E04D
S11302B0F9012081422F21E030E00D8002C0220F9D
S11302C0331F0A94E2F7242BFC0120838AE290E096
S11302D02AE230E0F9012081422F21E030E00D8054
S11302E002C0220F331F0A94E2F720952423FC0155
S11302F0208326C08BE290E02BE230E0F9012081DC
S1130300422F21E030E00D8002C0220F331F0A94F7
S1130310E2F720952423FC0120838AE290E02AE27C
S113032030E0F9012081422F21E030E00D8002C04D
S1130330220F331F0A94E2F720952423FC01208323
S113034000001BC18D819E8108970CF489C08D81AA
S11303509E8140970CF084C08D819E8108979A837A
S113036089838F819885009749F1019709F005C128
S113037084E290E024E230E0F9012081422F21E080
S113038030E0098002C0220F331F0A94E2F7242BC5
S1130390FC01208385E290E025E230E0F901208130
S11303A0422F21E030E0098002C0220F331F0A945B
S11303B0E2F720952423FC01208351C089859A8586
S11303C0892B31F185E290E025E230E0F9012081CA
S11303D0422F21E030E0098002C0220F331F0A942B
S11303E0E2F7242BFC01208384E290E024E230E055
S11303F0F9012081422F21E030E0098002C0220F60
S1130400331F0A94E2F720952423FC01208326C09D
S113041085E290E025E230E0F9012081422F21E0DD
S113042030E0098002C0220F331F0A94E2F72095BE
S11304302423FC01208384E290E024E230E0F901EB
S11304402081422F21E030E0098002C0220F331FB7
S11304500A94E2F720952423FC01208300008DC038
S11304608D819E8140970CF488C08D819E81469732
S11304700CF083C08D819E8140979C838B838F81F8
S11304809885009749F1019709F077C087E290E0D9
S113049027E230E0F9012081422F21E030E00B8097
S11304A002C0220F331F0A94E2F7242BFC0120839D
S11304B088E290E028E230E0F9012081422F21E037
S11304C030E00B8002C0220F331F0A94E2F720951C
S11304D02423FC01208351C089859A85892B31F11D
S11304E088E290E028E230E0F9012081422F21E007
S11304F030E00B8002C0220F331F0A94E2F7242B52
S1130500FC01208387E290E027E230E0F9012081BA
S1130510422F21E030E00B8002C0220F331F0A94E7
S1130520E2F720952423FC01208326C088E290E092
S113053028E230E0F9012081422F21E030E00B80F5
S113054002C0220F331F0A94E2F720952423FC01F2
S1130550208387E290E027E230E0F9012081422FF6
S113056021E030E00B8002C0220F331F0A94E2F72F
S113057020952423FC01208300002A960FB6F894CA
S1130580DEBF0FBECDBFDF91CF910895CF93DF9330
S1130590CDB7DEB728970FB6F894DEBF0FBECDBF38
S11305A09E838D8378876F838D819E8199239CF1AF
S11305B08D819E8108977CF58F8198850097B1F095
S11305C0019709F09EC08BE290E02BE230E0F90144
S11305D02081422F21E030E00D8002C0220F331F22
S11305E00A94E2F7242BFC01208314C08BE290E0F0
S11305F02BE230E0F9012081422F21E030E00D8030
S113060002C0220F331F0A94E2F720952423FC0131
S11306102083000076C08D819E810897C4F18D816E
S11306209E814097A4F58D819E8108979A83898342
S11306308F8198850097B1F0019709F062C085E237
S113064090E025E230E0F9012081422F21E030E002
S1130650098002C0220F331F0A94E2F7242BFC0105
S1130660208314C085E290E025E230E0F901208186
S1130670422F21E030E0098002C0220F331F0A9488
S1130680E2F720952423FC01208300003AC08D81E9
S11306909E814097B4F18D819E81469794F58D811A
S11306A09E810E979C838B838F8198850097A9F0F8
S11306B0019739F588E290E028E230E0F9012081E1
S11306C0422F21E030E00B8002C0220F331F0A9436
S11306D0E2F7242BFC01208314C088E290E028E296
S11306E030E0F9012081422F21E030E00B8002C08C
S11306F0220F331F0A94E2F720952423FC01208360
S1130700000028960FB6F894DEBF0FBECDBFDF9170
S1130710CF910895CF93DF93CDB7DEB728970FB667
S1130720F894DEBF0FBECDBF6D837E838F83988721
S11307302D813E814F81588587ED91E0DC010E9437
S11307405804DC01CB0189839A83AB83BC83898100
S11307509A81AB81BC810197A109B10989839A83EC
S1130760AB83BC8389819A81AB81BC81892B8A2B21
S11307708B2B69F728960FB6F894DEBF0FBECDBF5A
S1130780DF91CF910895CF93DF93CDB7DEB70E9469
S1130790530065C00E947A00882F90E09093110165
S11307A0809310012091100130911101809100017A
S11307B0909101012817390709F047C080910E0173
S11307C090910F01019690930F0180930E018091F7
S11307D00C0190910D01880F991F8C5F9E4FFC01B5
S11307E02081318180910E0190910F0128173907E2
S11307F081F580910C0190910D01019690930D016A
S113080080930C01809100019091010121E0892BDA
S113081009F020E0822F90E0909301018093000181
S113082010920F0110920E0180910C0190910D0114
S113083004977CF061E070E08DE090E00E94C602D5
S1130840109203011092020104C00E9443040E940A
S1130850B50062E070E080E090E00E948A0380913D
S1130860020190910301892B09F094CF83E290E077
S1130870FC018081882334F081E090E090930301AF
S11308808093020186CFCF93DF93CDB7DEB710926A
S11308900F0110920E0110920D0110920C0181E0D3
S11308A090E09093010180930001DF91CF9108952E
S11308B00E946304A59F900DB49F900DA49F800D8A
S11308C0911D11240895A29FB001B39FC001A39F5D
S11308D0700D811D1124911DB29F700D811D112475
S10B08E0911D0895F894FFCF67
S10F08E8010001000900030005000100EC
S9030000FC
